{
  "_format": "hh-sol-artifact-1",
  "contractName": "VotingContract",
  "sourceName": "contracts/VotingContract.sol",
  "abi": [
    {
      "inputs": [],
      "stateMutability": "nonpayable",
      "type": "constructor"
    },
    {
      "inputs": [
        {
          "internalType": "address",
          "name": "have",
          "type": "address"
        },
        {
          "internalType": "address",
          "name": "want",
          "type": "address"
        }
      ],
      "name": "OnlyCoordinatorCanFulfill",
      "type": "error"
    },
    {
      "anonymous": false,
      "inputs": [
        {
          "indexed": true,
          "internalType": "address",
          "name": "previousOwner",
          "type": "address"
        },
        {
          "indexed": true,
          "internalType": "address",
          "name": "newOwner",
          "type": "address"
        }
      ],
      "name": "OwnershipTransferred",
      "type": "event"
    },
    {
      "anonymous": false,
      "inputs": [
        {
          "indexed": true,
          "internalType": "uint256",
          "name": "voterID",
          "type": "uint256"
        },
        {
          "indexed": false,
          "internalType": "string",
          "name": "voter_name",
          "type": "string"
        },
        {
          "indexed": false,
          "internalType": "bool",
          "name": "voter_Voted",
          "type": "bool"
        },
        {
          "indexed": false,
          "internalType": "address",
          "name": "voter_Address",
          "type": "address"
        },
        {
          "indexed": false,
          "internalType": "string",
          "name": "voter_Image",
          "type": "string"
        },
        {
          "indexed": false,
          "internalType": "string",
          "name": "voter_ipfs",
          "type": "string"
        },
        {
          "indexed": false,
          "internalType": "address",
          "name": "voter_voteFor",
          "type": "address"
        }
      ],
      "name": "VoterEvent",
      "type": "event"
    },
    {
      "anonymous": false,
      "inputs": [
        {
          "indexed": true,
          "internalType": "uint256",
          "name": "rapperID",
          "type": "uint256"
        },
        {
          "indexed": false,
          "internalType": "string",
          "name": "name",
          "type": "string"
        },
        {
          "indexed": false,
          "internalType": "string",
          "name": "image",
          "type": "string"
        },
        {
          "indexed": false,
          "internalType": "string",
          "name": "ipfs",
          "type": "string"
        },
        {
          "indexed": false,
          "internalType": "address",
          "name": "_address",
          "type": "address"
        },
        {
          "indexed": false,
          "internalType": "uint256",
          "name": "voteCount",
          "type": "uint256"
        }
      ],
      "name": "rapperEvent",
      "type": "event"
    },
    {
      "inputs": [],
      "name": "Winner",
      "outputs": [
        {
          "internalType": "string",
          "name": "name",
          "type": "string"
        },
        {
          "internalType": "uint256",
          "name": "rapperID",
          "type": "uint256"
        },
        {
          "internalType": "string",
          "name": "image",
          "type": "string"
        },
        {
          "internalType": "string",
          "name": "ipfs",
          "type": "string"
        },
        {
          "internalType": "address",
          "name": "_address",
          "type": "address"
        },
        {
          "internalType": "uint256",
          "name": "voteCount",
          "type": "uint256"
        }
      ],
      "stateMutability": "view",
      "type": "function"
    },
    {
      "inputs": [],
      "name": "_rapperId",
      "outputs": [
        {
          "internalType": "uint256",
          "name": "_value",
          "type": "uint256"
        }
      ],
      "stateMutability": "view",
      "type": "function"
    },
    {
      "inputs": [],
      "name": "_voterId",
      "outputs": [
        {
          "internalType": "uint256",
          "name": "_value",
          "type": "uint256"
        }
      ],
      "stateMutability": "view",
      "type": "function"
    },
    {
      "inputs": [],
      "name": "callWinner",
      "outputs": [],
      "stateMutability": "nonpayable",
      "type": "function"
    },
    {
      "inputs": [
        {
          "internalType": "address",
          "name": "_rapperID",
          "type": "address"
        }
      ],
      "name": "getA_RapperData",
      "outputs": [
        {
          "internalType": "uint256",
          "name": "",
          "type": "uint256"
        },
        {
          "internalType": "string",
          "name": "",
          "type": "string"
        },
        {
          "internalType": "string",
          "name": "",
          "type": "string"
        },
        {
          "internalType": "string",
          "name": "",
          "type": "string"
        },
        {
          "internalType": "address",
          "name": "",
          "type": "address"
        },
        {
          "internalType": "uint256",
          "name": "",
          "type": "uint256"
        }
      ],
      "stateMutability": "view",
      "type": "function"
    },
    {
      "inputs": [],
      "name": "getNumberOfAllVoters",
      "outputs": [
        {
          "internalType": "uint256",
          "name": "",
          "type": "uint256"
        }
      ],
      "stateMutability": "view",
      "type": "function"
    },
    {
      "inputs": [],
      "name": "getRapperAddresses",
      "outputs": [
        {
          "internalType": "address[]",
          "name": "",
          "type": "address[]"
        }
      ],
      "stateMutability": "view",
      "type": "function"
    },
    {
      "inputs": [],
      "name": "getTheNumberOfRappers",
      "outputs": [
        {
          "internalType": "uint256",
          "name": "",
          "type": "uint256"
        }
      ],
      "stateMutability": "view",
      "type": "function"
    },
    {
      "inputs": [],
      "name": "owner",
      "outputs": [
        {
          "internalType": "address",
          "name": "",
          "type": "address"
        }
      ],
      "stateMutability": "view",
      "type": "function"
    },
    {
      "inputs": [
        {
          "internalType": "uint256",
          "name": "",
          "type": "uint256"
        }
      ],
      "name": "rapperAddresses",
      "outputs": [
        {
          "internalType": "address",
          "name": "",
          "type": "address"
        }
      ],
      "stateMutability": "view",
      "type": "function"
    },
    {
      "inputs": [
        {
          "internalType": "address",
          "name": "",
          "type": "address"
        }
      ],
      "name": "rapperMapping",
      "outputs": [
        {
          "internalType": "string",
          "name": "name",
          "type": "string"
        },
        {
          "internalType": "uint256",
          "name": "rapperID",
          "type": "uint256"
        },
        {
          "internalType": "string",
          "name": "image",
          "type": "string"
        },
        {
          "internalType": "string",
          "name": "ipfs",
          "type": "string"
        },
        {
          "internalType": "address",
          "name": "_address",
          "type": "address"
        },
        {
          "internalType": "uint256",
          "name": "voteCount",
          "type": "uint256"
        }
      ],
      "stateMutability": "view",
      "type": "function"
    },
    {
      "inputs": [
        {
          "internalType": "uint256",
          "name": "requestId",
          "type": "uint256"
        },
        {
          "internalType": "uint256[]",
          "name": "randomWords",
          "type": "uint256[]"
        }
      ],
      "name": "rawFulfillRandomWords",
      "outputs": [],
      "stateMutability": "nonpayable",
      "type": "function"
    },
    {
      "inputs": [],
      "name": "renounceOwnership",
      "outputs": [],
      "stateMutability": "nonpayable",
      "type": "function"
    },
    {
      "inputs": [
        {
          "internalType": "uint256",
          "name": "",
          "type": "uint256"
        }
      ],
      "name": "s_randomWords",
      "outputs": [
        {
          "internalType": "uint256",
          "name": "",
          "type": "uint256"
        }
      ],
      "stateMutability": "view",
      "type": "function"
    },
    {
      "inputs": [],
      "name": "s_requestId",
      "outputs": [
        {
          "internalType": "uint256",
          "name": "",
          "type": "uint256"
        }
      ],
      "stateMutability": "view",
      "type": "function"
    },
    {
      "inputs": [],
      "name": "s_subscriptionId",
      "outputs": [
        {
          "internalType": "uint64",
          "name": "",
          "type": "uint64"
        }
      ],
      "stateMutability": "view",
      "type": "function"
    },
    {
      "inputs": [
        {
          "internalType": "address",
          "name": "_address",
          "type": "address"
        },
        {
          "internalType": "string",
          "name": "_image",
          "type": "string"
        },
        {
          "internalType": "string",
          "name": "_ipfs",
          "type": "string"
        },
        {
          "internalType": "string",
          "name": "_name",
          "type": "string"
        }
      ],
      "name": "setRapper",
      "outputs": [],
      "stateMutability": "nonpayable",
      "type": "function"
    },
    {
      "inputs": [
        {
          "internalType": "uint256",
          "name": "amount",
          "type": "uint256"
        }
      ],
      "name": "topUpSubscription",
      "outputs": [],
      "stateMutability": "nonpayable",
      "type": "function"
    },
    {
      "inputs": [
        {
          "internalType": "address",
          "name": "newOwner",
          "type": "address"
        }
      ],
      "name": "transferOwnership",
      "outputs": [],
      "stateMutability": "nonpayable",
      "type": "function"
    },
    {
      "inputs": [
        {
          "internalType": "address",
          "name": "_rapperID",
          "type": "address"
        },
        {
          "internalType": "string",
          "name": "_name",
          "type": "string"
        },
        {
          "internalType": "string",
          "name": "_image",
          "type": "string"
        },
        {
          "internalType": "string",
          "name": "_ipfs",
          "type": "string"
        },
        {
          "internalType": "uint256",
          "name": "amount",
          "type": "uint256"
        }
      ],
      "name": "voteNow",
      "outputs": [],
      "stateMutability": "payable",
      "type": "function"
    },
    {
      "inputs": [
        {
          "internalType": "uint256",
          "name": "",
          "type": "uint256"
        }
      ],
      "name": "voterAddresses",
      "outputs": [
        {
          "internalType": "address",
          "name": "",
          "type": "address"
        }
      ],
      "stateMutability": "view",
      "type": "function"
    },
    {
      "inputs": [
        {
          "internalType": "address",
          "name": "",
          "type": "address"
        }
      ],
      "name": "voterMapping",
      "outputs": [
        {
          "internalType": "string",
          "name": "voter_name",
          "type": "string"
        },
        {
          "internalType": "uint256",
          "name": "voterID",
          "type": "uint256"
        },
        {
          "internalType": "bool",
          "name": "voter_Voted",
          "type": "bool"
        },
        {
          "internalType": "address",
          "name": "voter_Address",
          "type": "address"
        },
        {
          "internalType": "string",
          "name": "voter_Image",
          "type": "string"
        },
        {
          "internalType": "string",
          "name": "voter_ipfs",
          "type": "string"
        },
        {
          "internalType": "address",
          "name": "voter_votedFor",
          "type": "address"
        }
      ],
      "stateMutability": "view",
      "type": "function"
    },
    {
      "inputs": [
        {
          "internalType": "uint256",
          "name": "amount",
          "type": "uint256"
        },
        {
          "internalType": "address",
          "name": "to",
          "type": "address"
        }
      ],
      "name": "withdraw",
      "outputs": [],
      "stateMutability": "nonpayable",
      "type": "function"
    }
  ],
  "bytecode": "0x60a0604052738103b0a8a00be2ddc778e6e7eaa21791cd364625600560006101000a81548173ffffffffffffffffffffffffffffffffffffffff021916908373ffffffffffffffffffffffffffffffffffffffff16021790555073779877a7b0d9e8603169ddbd7836e478b4624789600660006101000a81548173ffffffffffffffffffffffffffffffffffffffff021916908373ffffffffffffffffffffffffffffffffffffffff1602179055507f474e34a077df58807dbe9c96d3c009b23b3c6d0cce433e59bbf5b34f823bc56c60001b600755620186a0600860006101000a81548163ffffffff021916908363ffffffff1602179055506003600860046101000a81548161ffff021916908361ffff160217905550600a600860066101000a81548163ffffffff021916908363ffffffff1602179055503480156200014657600080fd5b50600560009054906101000a900473ffffffffffffffffffffffffffffffffffffffff166200018a6200017e6200029b60201b60201c565b620002a360201b60201c565b8073ffffffffffffffffffffffffffffffffffffffff1660808173ffffffffffffffffffffffffffffffffffffffff168152505050600560009054906101000a900473ffffffffffffffffffffffffffffffffffffffff16600160006101000a81548173ffffffffffffffffffffffffffffffffffffffff021916908373ffffffffffffffffffffffffffffffffffffffff160217905550600660009054906101000a900473ffffffffffffffffffffffffffffffffffffffff16600260006101000a81548173ffffffffffffffffffffffffffffffffffffffff021916908373ffffffffffffffffffffffffffffffffffffffff160217905550620002956200036760201b60201c565b6200071c565b600033905090565b60008060009054906101000a900473ffffffffffffffffffffffffffffffffffffffff169050816000806101000a81548173ffffffffffffffffffffffffffffffffffffffff021916908373ffffffffffffffffffffffffffffffffffffffff1602179055508173ffffffffffffffffffffffffffffffffffffffff168173ffffffffffffffffffffffffffffffffffffffff167f8be0079c531659141344cd1fd0a4f28419497f9722a3daafe3b4186f6b6457e060405160405180910390a35050565b62000377620004e060201b60201c565b600160009054906101000a900473ffffffffffffffffffffffffffffffffffffffff1673ffffffffffffffffffffffffffffffffffffffff1663a21a23e46040518163ffffffff1660e01b81526004016020604051808303816000875af1158015620003e7573d6000803e3d6000fd5b505050506040513d601f19601f820116820180604052508101906200040d9190620005e4565b600b60006101000a81548167ffffffffffffffff021916908367ffffffffffffffff160217905550600160009054906101000a900473ffffffffffffffffffffffffffffffffffffffff1673ffffffffffffffffffffffffffffffffffffffff16637341c10c600b60009054906101000a900467ffffffffffffffff16306040518363ffffffff1660e01b8152600401620004aa9291906200066c565b600060405180830381600087803b158015620004c557600080fd5b505af1158015620004da573d6000803e3d6000fd5b50505050565b620004f06200029b60201b60201c565b73ffffffffffffffffffffffffffffffffffffffff16620005166200057160201b60201c565b73ffffffffffffffffffffffffffffffffffffffff16146200056f576040517f08c379a00000000000000000000000000000000000000000000000000000000081526004016200056690620006fa565b60405180910390fd5b565b60008060009054906101000a900473ffffffffffffffffffffffffffffffffffffffff16905090565b600080fd5b600067ffffffffffffffff82169050919050565b620005be816200059f565b8114620005ca57600080fd5b50565b600081519050620005de81620005b3565b92915050565b600060208284031215620005fd57620005fc6200059a565b5b60006200060d84828501620005cd565b91505092915050565b62000621816200059f565b82525050565b600073ffffffffffffffffffffffffffffffffffffffff82169050919050565b6000620006548262000627565b9050919050565b620006668162000647565b82525050565b600060408201905062000683600083018562000616565b6200069260208301846200065b565b9392505050565b600082825260208201905092915050565b7f4f776e61626c653a2063616c6c6572206973206e6f7420746865206f776e6572600082015250565b6000620006e260208362000699565b9150620006ef82620006aa565b602082019050919050565b600060208201905081810360008301526200071581620006d3565b9050919050565b6080516137366200073f600039600081816108d2015261092601526137366000f3fe60806040526004361061013f5760003560e01c80638da5cb5b116100b6578063dd0e23731161006f578063dd0e237314610435578063e3cf6e4714610472578063e89e106a1461048e578063f2fde38b146104b9578063f6eaffc8146104e2578063ff9e17871461051f5761013f565b80638da5cb5b1461032d578063b14876bb14610358578063b2b98ed214610381578063b9be3152146103b1578063bf150af7146103dc578063d3abd4c61461041e5761013f565b80633f560570116101085780633f5605701461022f578063483cc47f1461026c578063715018a61461029757806386850e93146102ae57806386cd75aa146102d75780638ac00021146103025761013f565b8062f714ce14610144578063060cff8e1461016d5780630dc968b8146101985780631c03f459146101db5780631fe543e314610206575b600080fd5b34801561015057600080fd5b5061016b600480360381019061016691906123eb565b610561565b005b34801561017957600080fd5b5061018261060e565b60405161018f91906124e9565b60405180910390f35b3480156101a457600080fd5b506101bf60048036038101906101ba919061250b565b61069c565b6040516101d29796959493929190612601565b60405180910390f35b3480156101e757600080fd5b506101f06108c3565b6040516101fd9190612685565b60405180910390f35b34801561021257600080fd5b5061022d600480360381019061022891906127e8565b6108d0565b005b34801561023b57600080fd5b5061025660048036038101906102519190612844565b610990565b6040516102639190612871565b60405180910390f35b34801561027857600080fd5b506102816109cf565b60405161028e9190612685565b60405180910390f35b3480156102a357600080fd5b506102ac6109db565b005b3480156102ba57600080fd5b506102d560048036038101906102d09190612844565b6109ef565b005b3480156102e357600080fd5b506102ec610af4565b6040516102f99190612685565b60405180910390f35b34801561030e57600080fd5b50610317610b01565b60405161032491906128af565b60405180910390f35b34801561033957600080fd5b50610342610b1b565b60405161034f9190612871565b60405180910390f35b34801561036457600080fd5b5061037f600480360381019061037a919061297f565b610b44565b005b34801561038d57600080fd5b50610396610d58565b6040516103a896959493929190612a3a565b60405180910390f35b3480156103bd57600080fd5b506103c6610f3a565b6040516103d39190612685565b60405180910390f35b3480156103e857600080fd5b5061040360048036038101906103fe919061250b565b610f46565b60405161041596959493929190612ab0565b60405180910390f35b34801561042a57600080fd5b50610433611188565b005b34801561044157600080fd5b5061045c60048036038101906104579190612844565b611595565b6040516104699190612871565b60405180910390f35b61048c60048036038101906104879190612b26565b6115d4565b005b34801561049a57600080fd5b506104a3611ab3565b6040516104b09190612685565b60405180910390f35b3480156104c557600080fd5b506104e060048036038101906104db919061250b565b611ab9565b005b3480156104ee57600080fd5b5061050960048036038101906105049190612844565b611b3c565b6040516105169190612685565b60405180910390f35b34801561052b57600080fd5b506105466004803603810190610541919061250b565b611b60565b60405161055896959493929190612a3a565b60405180910390f35b610569611d54565b600260009054906101000a900473ffffffffffffffffffffffffffffffffffffffff1673ffffffffffffffffffffffffffffffffffffffff1663a9059cbb82846040518363ffffffff1660e01b81526004016105c6929190612bf5565b6020604051808303816000875af11580156105e5573d6000803e3d6000fd5b505050506040513d601f19601f820116820180604052508101906106099190612c4a565b505050565b6060601380548060200260200160405190810160405280929190818152602001828054801561069257602002820191906000526020600020905b8160009054906101000a900473ffffffffffffffffffffffffffffffffffffffff1673ffffffffffffffffffffffffffffffffffffffff1681526020019060010190808311610648575b5050505050905090565b60166020528060005260406000206000915090508060000180546106bf90612ca6565b80601f01602080910402602001604051908101604052809291908181526020018280546106eb90612ca6565b80156107385780601f1061070d57610100808354040283529160200191610738565b820191906000526020600020905b81548152906001019060200180831161071b57829003601f168201915b5050505050908060010154908060020160009054906101000a900460ff16908060020160019054906101000a900473ffffffffffffffffffffffffffffffffffffffff169080600301805461078c90612ca6565b80601f01602080910402602001604051908101604052809291908181526020018280546107b890612ca6565b80156108055780601f106107da57610100808354040283529160200191610805565b820191906000526020600020905b8154815290600101906020018083116107e857829003601f168201915b50505050509080600401805461081a90612ca6565b80601f016020809104026020016040519081016040528092919081815260200182805461084690612ca6565b80156108935780601f1061086857610100808354040283529160200191610893565b820191906000526020600020905b81548152906001019060200180831161087657829003601f168201915b5050505050908060050160009054906101000a900473ffffffffffffffffffffffffffffffffffffffff16905087565b6000601580549050905090565b7f000000000000000000000000000000000000000000000000000000000000000073ffffffffffffffffffffffffffffffffffffffff163373ffffffffffffffffffffffffffffffffffffffff161461098257337f00000000000000000000000000000000000000000000000000000000000000006040517f1cf993f4000000000000000000000000000000000000000000000000000000008152600401610979929190612cd7565b60405180910390fd5b61098c8282611dd2565b5050565b601381815481106109a057600080fd5b906000526020600020016000915054906101000a900473ffffffffffffffffffffffffffffffffffffffff1681565b60048060000154905081565b6109e3611d54565b6109ed600061200b565b565b6109f7611d54565b600260009054906101000a900473ffffffffffffffffffffffffffffffffffffffff1673ffffffffffffffffffffffffffffffffffffffff16634000aea0600160009054906101000a900473ffffffffffffffffffffffffffffffffffffffff1683600b60009054906101000a900467ffffffffffffffff16604051602001610a8091906128af565b6040516020818303038152906040526040518463ffffffff1660e01b8152600401610aad93929190612d55565b6020604051808303816000875af1158015610acc573d6000803e3d6000fd5b505050506040513d601f19601f82011682018060405250810190610af09190612c4a565b5050565b6000601380549050905090565b600b60009054906101000a900467ffffffffffffffff1681565b60008060009054906101000a900473ffffffffffffffffffffffffffffffffffffffff16905090565b610b4c611d54565b6060610b5860046120cf565b6000610b6460046120e5565b90506040518060e001604052808481526020018281526020018681526020018581526020018773ffffffffffffffffffffffffffffffffffffffff1681526020016000815260200183815250601460008873ffffffffffffffffffffffffffffffffffffffff1673ffffffffffffffffffffffffffffffffffffffff1681526020019081526020016000206000820151816000019081610c049190612f3f565b50602082015181600101556040820151816002019081610c249190612f3f565b506060820151816003019081610c3a9190612f3f565b5060808201518160040160006101000a81548173ffffffffffffffffffffffffffffffffffffffff021916908373ffffffffffffffffffffffffffffffffffffffff16021790555060a0820151816005015560c0820151816006019080519060200190610ca89291906121fd565b509050506013869080600181540180825580915050600190039060005260206000200160009091909190916101000a81548173ffffffffffffffffffffffffffffffffffffffff021916908373ffffffffffffffffffffffffffffffffffffffff160217905550807f45eac78a0a8372684ec14833cd563e6f15f5a7fc5ad3553f55045a52bd1157af8487878a6000604051610d4895949392919061304c565b60405180910390a2505050505050565b600c806000018054610d6990612ca6565b80601f0160208091040260200160405190810160405280929190818152602001828054610d9590612ca6565b8015610de25780601f10610db757610100808354040283529160200191610de2565b820191906000526020600020905b815481529060010190602001808311610dc557829003601f168201915b505050505090806001015490806002018054610dfd90612ca6565b80601f0160208091040260200160405190810160405280929190818152602001828054610e2990612ca6565b8015610e765780601f10610e4b57610100808354040283529160200191610e76565b820191906000526020600020905b815481529060010190602001808311610e5957829003601f168201915b505050505090806003018054610e8b90612ca6565b80601f0160208091040260200160405190810160405280929190818152602001828054610eb790612ca6565b8015610f045780601f10610ed957610100808354040283529160200191610f04565b820191906000526020600020905b815481529060010190602001808311610ee757829003601f168201915b5050505050908060040160009054906101000a900473ffffffffffffffffffffffffffffffffffffffff16908060050154905086565b60038060000154905081565b600060608060606000806000601460008973ffffffffffffffffffffffffffffffffffffffff1673ffffffffffffffffffffffffffffffffffffffff168152602001908152602001600020905080600101548160000182600201836003018460040160009054906101000a900473ffffffffffffffffffffffffffffffffffffffff168560050154848054610fda90612ca6565b80601f016020809104026020016040519081016040528092919081815260200182805461100690612ca6565b80156110535780601f1061102857610100808354040283529160200191611053565b820191906000526020600020905b81548152906001019060200180831161103657829003601f168201915b5050505050945083805461106690612ca6565b80601f016020809104026020016040519081016040528092919081815260200182805461109290612ca6565b80156110df5780601f106110b4576101008083540402835291602001916110df565b820191906000526020600020905b8154815290600101906020018083116110c257829003601f168201915b505050505093508280546110f290612ca6565b80601f016020809104026020016040519081016040528092919081815260200182805461111e90612ca6565b801561116b5780601f106111405761010080835404028352916020019161116b565b820191906000526020600020905b81548152906001019060200180831161114e57829003601f168201915b505050505092509650965096509650965096505091939550919395565b611190611d54565b60005b60016013805490506111a591906130e3565b81101561158a5760146000601383806111bd90613117565b9450815481106111d0576111cf61315f565b5b9060005260206000200160009054906101000a900473ffffffffffffffffffffffffffffffffffffffff1673ffffffffffffffffffffffffffffffffffffffff1673ffffffffffffffffffffffffffffffffffffffff1681526020019081526020016000206005015460146000601384815481106112515761125061315f565b5b9060005260206000200160009054906101000a900473ffffffffffffffffffffffffffffffffffffffff1673ffffffffffffffffffffffffffffffffffffffff1673ffffffffffffffffffffffffffffffffffffffff16815260200190815260200160002060050154106114175760146000601383815481106112d7576112d661315f565b5b9060005260206000200160009054906101000a900473ffffffffffffffffffffffffffffffffffffffff1673ffffffffffffffffffffffffffffffffffffffff1673ffffffffffffffffffffffffffffffffffffffff168152602001908152602001600020600c6000820181600001908161135291906131a4565b50600182015481600101556002820181600201908161137191906131a4565b506003820181600301908161138691906131a4565b506004820160009054906101000a900473ffffffffffffffffffffffffffffffffffffffff168160040160006101000a81548173ffffffffffffffffffffffffffffffffffffffff021916908373ffffffffffffffffffffffffffffffffffffffff16021790555060058201548160050155600682018160060190805461140e929190612287565b50905050611577565b601460006013838061142890613117565b94508154811061143b5761143a61315f565b5b9060005260206000200160009054906101000a900473ffffffffffffffffffffffffffffffffffffffff1673ffffffffffffffffffffffffffffffffffffffff1673ffffffffffffffffffffffffffffffffffffffff168152602001908152602001600020600c600082018160000190816114b691906131a4565b5060018201548160010155600282018160020190816114d591906131a4565b50600382018160030190816114ea91906131a4565b506004820160009054906101000a900473ffffffffffffffffffffffffffffffffffffffff168160040160006101000a81548173ffffffffffffffffffffffffffffffffffffffff021916908373ffffffffffffffffffffffffffffffffffffffff160217905550600582015481600501556006820181600601908054611572929190612287565b509050505b808061158290613117565b915050611193565b506115936120f3565b565b601581815481106115a557600080fd5b906000526020600020016000915054906101000a900473ffffffffffffffffffffffffffffffffffffffff1681565b6729a2241af62c000081101561161f576040517f08c379a0000000000000000000000000000000000000000000000000000000008152600401611616906132d8565b60405180910390fd5b600260009054906101000a900473ffffffffffffffffffffffffffffffffffffffff1673ffffffffffffffffffffffffffffffffffffffff166323b872dd3330846040518463ffffffff1660e01b815260040161167e939291906132f8565b6020604051808303816000875af115801561169d573d6000803e3d6000fd5b505050506040513d601f19601f820116820180604052508101906116c19190612c4a565b50601660003373ffffffffffffffffffffffffffffffffffffffff1673ffffffffffffffffffffffffffffffffffffffff16815260200190815260200160002060020160009054906101000a900460ff1615611752576040517f08c379a00000000000000000000000000000000000000000000000000000000081526004016117499061337b565b60405180910390fd5b6001601460008773ffffffffffffffffffffffffffffffffffffffff1673ffffffffffffffffffffffffffffffffffffffff16815260200190815260200160002060050160008282546117a5919061339b565b92505081905550601460008673ffffffffffffffffffffffffffffffffffffffff1673ffffffffffffffffffffffffffffffffffffffff168152602001908152602001600020600601339080600181540180825580915050600190039060005260206000200160009091909190916101000a81548173ffffffffffffffffffffffffffffffffffffffff021916908373ffffffffffffffffffffffffffffffffffffffff16021790555061185960036120cf565b600061186560036120e5565b90506040518060e001604052808681526020018281526020016001151581526020013373ffffffffffffffffffffffffffffffffffffffff1681526020018581526020018481526020018773ffffffffffffffffffffffffffffffffffffffff16815250601660003373ffffffffffffffffffffffffffffffffffffffff1673ffffffffffffffffffffffffffffffffffffffff168152602001908152602001600020600082015181600001908161191d9190612f3f565b506020820151816001015560408201518160020160006101000a81548160ff02191690831515021790555060608201518160020160016101000a81548173ffffffffffffffffffffffffffffffffffffffff021916908373ffffffffffffffffffffffffffffffffffffffff16021790555060808201518160030190816119a49190612f3f565b5060a08201518160040190816119ba9190612f3f565b5060c08201518160050160006101000a81548173ffffffffffffffffffffffffffffffffffffffff021916908373ffffffffffffffffffffffffffffffffffffffff1602179055509050506015339080600181540180825580915050600190039060005260206000200160009091909190916101000a81548173ffffffffffffffffffffffffffffffffffffffff021916908373ffffffffffffffffffffffffffffffffffffffff160217905550807f611744f60c4ad2cf2d1ecda98b6bfc70d3284804d1b880c2ad6498ef8bb6a5a68660013388888c604051611aa3969594939291906133cf565b60405180910390a2505050505050565b600a5481565b611ac1611d54565b600073ffffffffffffffffffffffffffffffffffffffff168173ffffffffffffffffffffffffffffffffffffffff1603611b30576040517f08c379a0000000000000000000000000000000000000000000000000000000008152600401611b27906134b7565b60405180910390fd5b611b398161200b565b50565b60098181548110611b4c57600080fd5b906000526020600020016000915090505481565b6014602052806000526040600020600091509050806000018054611b8390612ca6565b80601f0160208091040260200160405190810160405280929190818152602001828054611baf90612ca6565b8015611bfc5780601f10611bd157610100808354040283529160200191611bfc565b820191906000526020600020905b815481529060010190602001808311611bdf57829003601f168201915b505050505090806001015490806002018054611c1790612ca6565b80601f0160208091040260200160405190810160405280929190818152602001828054611c4390612ca6565b8015611c905780601f10611c6557610100808354040283529160200191611c90565b820191906000526020600020905b815481529060010190602001808311611c7357829003601f168201915b505050505090806003018054611ca590612ca6565b80601f0160208091040260200160405190810160405280929190818152602001828054611cd190612ca6565b8015611d1e5780601f10611cf357610100808354040283529160200191611d1e565b820191906000526020600020905b815481529060010190602001808311611d0157829003601f168201915b5050505050908060040160009054906101000a900473ffffffffffffffffffffffffffffffffffffffff16908060050154905086565b611d5c6121f5565b73ffffffffffffffffffffffffffffffffffffffff16611d7a610b1b565b73ffffffffffffffffffffffffffffffffffffffff1614611dd0576040517f08c379a0000000000000000000000000000000000000000000000000000000008152600401611dc790613523565b60405180910390fd5b565b8060099080519060200190611de89291906122d9565b50600080600080600090505b600980549050811015612003576001600c60050154611e13919061339b565b60098281548110611e2757611e2661315f565b5b9060005260206000200154611e3c9190613572565b9350600260009054906101000a900473ffffffffffffffffffffffffffffffffffffffff1673ffffffffffffffffffffffffffffffffffffffff166370a08231306040518263ffffffff1660e01b8152600401611e999190612871565b602060405180830381865afa158015611eb6573d6000803e3d6000fd5b505050506040513d601f19601f82011682018060405250810190611eda91906135b8565b92506064836014611eeb91906135e5565b611ef59190613627565b83611f0091906130e3565b9150600260009054906101000a900473ffffffffffffffffffffffffffffffffffffffff1673ffffffffffffffffffffffffffffffffffffffff1663a9059cbb600c6006018681548110611f5757611f5661315f565b5b9060005260206000200160009054906101000a900473ffffffffffffffffffffffffffffffffffffffff16600a85611f8f9190613627565b6040518363ffffffff1660e01b8152600401611fac929190612bf5565b6020604051808303816000875af1158015611fcb573d6000803e3d6000fd5b505050506040513d601f19601f82011682018060405250810190611fef9190612c4a565b508080611ffb90613117565b915050611df4565b505050505050565b60008060009054906101000a900473ffffffffffffffffffffffffffffffffffffffff169050816000806101000a81548173ffffffffffffffffffffffffffffffffffffffff021916908373ffffffffffffffffffffffffffffffffffffffff1602179055508173ffffffffffffffffffffffffffffffffffffffff168173ffffffffffffffffffffffffffffffffffffffff167f8be0079c531659141344cd1fd0a4f28419497f9722a3daafe3b4186f6b6457e060405160405180910390a35050565b6001816000016000828254019250508190555050565b600081600001549050919050565b6120fb611d54565b600160009054906101000a900473ffffffffffffffffffffffffffffffffffffffff1673ffffffffffffffffffffffffffffffffffffffff16635d3b1d30600754600b60009054906101000a900467ffffffffffffffff16600860049054906101000a900461ffff16600860009054906101000a900463ffffffff16600860069054906101000a900463ffffffff166040518663ffffffff1660e01b81526004016121aa9594939291906136ad565b6020604051808303816000875af11580156121c9573d6000803e3d6000fd5b505050506040513d601f19601f820116820180604052508101906121ed91906135b8565b600a81905550565b600033905090565b828054828255906000526020600020908101928215612276579160200282015b828111156122755782518260006101000a81548173ffffffffffffffffffffffffffffffffffffffff021916908373ffffffffffffffffffffffffffffffffffffffff1602179055509160200191906001019061221d565b5b5090506122839190612326565b5090565b8280548282559060005260206000209081019282156122c85760005260206000209182015b828111156122c75782548255916001019190600101906122ac565b5b5090506122d59190612326565b5090565b828054828255906000526020600020908101928215612315579160200282015b828111156123145782518255916020019190600101906122f9565b5b5090506123229190612326565b5090565b5b8082111561233f576000816000905550600101612327565b5090565b6000604051905090565b600080fd5b600080fd5b6000819050919050565b61236a81612357565b811461237557600080fd5b50565b60008135905061238781612361565b92915050565b600073ffffffffffffffffffffffffffffffffffffffff82169050919050565b60006123b88261238d565b9050919050565b6123c8816123ad565b81146123d357600080fd5b50565b6000813590506123e5816123bf565b92915050565b600080604083850312156124025761240161234d565b5b600061241085828601612378565b9250506020612421858286016123d6565b9150509250929050565b600081519050919050565b600082825260208201905092915050565b6000819050602082019050919050565b612460816123ad565b82525050565b60006124728383612457565b60208301905092915050565b6000602082019050919050565b60006124968261242b565b6124a08185612436565b93506124ab83612447565b8060005b838110156124dc5781516124c38882612466565b97506124ce8361247e565b9250506001810190506124af565b5085935050505092915050565b60006020820190508181036000830152612503818461248b565b905092915050565b6000602082840312156125215761252061234d565b5b600061252f848285016123d6565b91505092915050565b600081519050919050565b600082825260208201905092915050565b60005b83811015612572578082015181840152602081019050612557565b60008484015250505050565b6000601f19601f8301169050919050565b600061259a82612538565b6125a48185612543565b93506125b4818560208601612554565b6125bd8161257e565b840191505092915050565b6125d181612357565b82525050565b60008115159050919050565b6125ec816125d7565b82525050565b6125fb816123ad565b82525050565b600060e082019050818103600083015261261b818a61258f565b905061262a60208301896125c8565b61263760408301886125e3565b61264460608301876125f2565b8181036080830152612656818661258f565b905081810360a083015261266a818561258f565b905061267960c08301846125f2565b98975050505050505050565b600060208201905061269a60008301846125c8565b92915050565b600080fd5b7f4e487b7100000000000000000000000000000000000000000000000000000000600052604160045260246000fd5b6126dd8261257e565b810181811067ffffffffffffffff821117156126fc576126fb6126a5565b5b80604052505050565b600061270f612343565b905061271b82826126d4565b919050565b600067ffffffffffffffff82111561273b5761273a6126a5565b5b602082029050602081019050919050565b600080fd5b600061276461275f84612720565b612705565b905080838252602082019050602084028301858111156127875761278661274c565b5b835b818110156127b0578061279c8882612378565b845260208401935050602081019050612789565b5050509392505050565b600082601f8301126127cf576127ce6126a0565b5b81356127df848260208601612751565b91505092915050565b600080604083850312156127ff576127fe61234d565b5b600061280d85828601612378565b925050602083013567ffffffffffffffff81111561282e5761282d612352565b5b61283a858286016127ba565b9150509250929050565b60006020828403121561285a5761285961234d565b5b600061286884828501612378565b91505092915050565b600060208201905061288660008301846125f2565b92915050565b600067ffffffffffffffff82169050919050565b6128a98161288c565b82525050565b60006020820190506128c460008301846128a0565b92915050565b600080fd5b600067ffffffffffffffff8211156128ea576128e96126a5565b5b6128f38261257e565b9050602081019050919050565b82818337600083830152505050565b600061292261291d846128cf565b612705565b90508281526020810184848401111561293e5761293d6128ca565b5b612949848285612900565b509392505050565b600082601f830112612966576129656126a0565b5b813561297684826020860161290f565b91505092915050565b600080600080608085870312156129995761299861234d565b5b60006129a7878288016123d6565b945050602085013567ffffffffffffffff8111156129c8576129c7612352565b5b6129d487828801612951565b935050604085013567ffffffffffffffff8111156129f5576129f4612352565b5b612a0187828801612951565b925050606085013567ffffffffffffffff811115612a2257612a21612352565b5b612a2e87828801612951565b91505092959194509250565b600060c0820190508181036000830152612a54818961258f565b9050612a6360208301886125c8565b8181036040830152612a75818761258f565b90508181036060830152612a89818661258f565b9050612a9860808301856125f2565b612aa560a08301846125c8565b979650505050505050565b600060c082019050612ac560008301896125c8565b8181036020830152612ad7818861258f565b90508181036040830152612aeb818761258f565b90508181036060830152612aff818661258f565b9050612b0e60808301856125f2565b612b1b60a08301846125c8565b979650505050505050565b600080600080600060a08688031215612b4257612b4161234d565b5b6000612b50888289016123d6565b955050602086013567ffffffffffffffff811115612b7157612b70612352565b5b612b7d88828901612951565b945050604086013567ffffffffffffffff811115612b9e57612b9d612352565b5b612baa88828901612951565b935050606086013567ffffffffffffffff811115612bcb57612bca612352565b5b612bd788828901612951565b9250506080612be888828901612378565b9150509295509295909350565b6000604082019050612c0a60008301856125f2565b612c1760208301846125c8565b9392505050565b612c27816125d7565b8114612c3257600080fd5b50565b600081519050612c4481612c1e565b92915050565b600060208284031215612c6057612c5f61234d565b5b6000612c6e84828501612c35565b91505092915050565b7f4e487b7100000000000000000000000000000000000000000000000000000000600052602260045260246000fd5b60006002820490506001821680612cbe57607f821691505b602082108103612cd157612cd0612c77565b5b50919050565b6000604082019050612cec60008301856125f2565b612cf960208301846125f2565b9392505050565b600081519050919050565b600082825260208201905092915050565b6000612d2782612d00565b612d318185612d0b565b9350612d41818560208601612554565b612d4a8161257e565b840191505092915050565b6000606082019050612d6a60008301866125f2565b612d7760208301856125c8565b8181036040830152612d898184612d1c565b9050949350505050565b60008190508160005260206000209050919050565b60006020601f8301049050919050565b600082821b905092915050565b600060088302612df57fffffffffffffffffffffffffffffffffffffffffffffffffffffffffffffffff82612db8565b612dff8683612db8565b95508019841693508086168417925050509392505050565b6000819050919050565b6000612e3c612e37612e3284612357565b612e17565b612357565b9050919050565b6000819050919050565b612e5683612e21565b612e6a612e6282612e43565b848454612dc5565b825550505050565b600090565b612e7f612e72565b612e8a818484612e4d565b505050565b5b81811015612eae57612ea3600082612e77565b600181019050612e90565b5050565b601f821115612ef357612ec481612d93565b612ecd84612da8565b81016020851015612edc578190505b612ef0612ee885612da8565b830182612e8f565b50505b505050565b600082821c905092915050565b6000612f1660001984600802612ef8565b1980831691505092915050565b6000612f2f8383612f05565b9150826002028217905092915050565b612f4882612538565b67ffffffffffffffff811115612f6157612f606126a5565b5b612f6b8254612ca6565b612f76828285612eb2565b600060209050601f831160018114612fa95760008415612f97578287015190505b612fa18582612f23565b865550613009565b601f198416612fb786612d93565b60005b82811015612fdf57848901518255600182019150602085019450602081019050612fba565b86831015612ffc5784890151612ff8601f891682612f05565b8355505b6001600288020188555050505b505050505050565b6000819050919050565b600061303661303161302c84613011565b612e17565b612357565b9050919050565b6130468161301b565b82525050565b600060a0820190508181036000830152613066818861258f565b9050818103602083015261307a818761258f565b9050818103604083015261308e818661258f565b905061309d60608301856125f2565b6130aa608083018461303d565b9695505050505050565b7f4e487b7100000000000000000000000000000000000000000000000000000000600052601160045260246000fd5b60006130ee82612357565b91506130f983612357565b9250828203905081811115613111576131106130b4565b5b92915050565b600061312282612357565b91507fffffffffffffffffffffffffffffffffffffffffffffffffffffffffffffffff8203613154576131536130b4565b5b600182019050919050565b7f4e487b7100000000000000000000000000000000000000000000000000000000600052603260045260246000fd5b60008154905061319d81612ca6565b9050919050565b8181036131b257505061328a565b6131bb8261318e565b67ffffffffffffffff8111156131d4576131d36126a5565b5b6131de8254612ca6565b6131e9828285612eb2565b6000601f8311600181146132185760008415613206578287015490505b6132108582612f23565b865550613283565b601f19841661322687612d93565b965061323186612d93565b60005b8281101561325957848901548255600182019150600185019450602081019050613234565b868310156132765784890154613272601f891682612f05565b8355505b6001600288020188555050505b5050505050505b565b7f6d696e696d756d207265717569726564204c494e4b20746f6b656e2069732033600082015250565b60006132c2602083612543565b91506132cd8261328c565b602082019050919050565b600060208201905081810360008301526132f1816132b5565b9050919050565b600060608201905061330d60008301866125f2565b61331a60208301856125f2565b61332760408301846125c8565b949350505050565b7f736f7272792c20796f752063616e206f6e6c7920766f7465206f6e6365000000600082015250565b6000613365601d83612543565b91506133708261332f565b602082019050919050565b6000602082019050818103600083015261339481613358565b9050919050565b60006133a682612357565b91506133b183612357565b92508282019050808211156133c9576133c86130b4565b5b92915050565b600060c08201905081810360008301526133e9818961258f565b90506133f860208301886125e3565b61340560408301876125f2565b8181036060830152613417818661258f565b9050818103608083015261342b818561258f565b905061343a60a08301846125f2565b979650505050505050565b7f4f776e61626c653a206e6577206f776e657220697320746865207a65726f206160008201527f6464726573730000000000000000000000000000000000000000000000000000602082015250565b60006134a1602683612543565b91506134ac82613445565b604082019050919050565b600060208201905081810360008301526134d081613494565b9050919050565b7f4f776e61626c653a2063616c6c6572206973206e6f7420746865206f776e6572600082015250565b600061350d602083612543565b9150613518826134d7565b602082019050919050565b6000602082019050818103600083015261353c81613500565b9050919050565b7f4e487b7100000000000000000000000000000000000000000000000000000000600052601260045260246000fd5b600061357d82612357565b915061358883612357565b92508261359857613597613543565b5b828206905092915050565b6000815190506135b281612361565b92915050565b6000602082840312156135ce576135cd61234d565b5b60006135dc848285016135a3565b91505092915050565b60006135f082612357565b91506135fb83612357565b925082820261360981612357565b915082820484148315176136205761361f6130b4565b5b5092915050565b600061363282612357565b915061363d83612357565b92508261364d5761364c613543565b5b828204905092915050565b6000819050919050565b61366b81613658565b82525050565b600061ffff82169050919050565b61368881613671565b82525050565b600063ffffffff82169050919050565b6136a78161368e565b82525050565b600060a0820190506136c26000830188613662565b6136cf60208301876128a0565b6136dc604083018661367f565b6136e9606083018561369e565b6136f6608083018461369e565b969550505050505056fea264697066735822122033f89aaca51ea98e4d84cf2290f86c78edf2c31efd909a474bf8c56cc40442f064736f6c63430008120033",
  "linkReferences": {},
  "deployedLinkReferences": {}
}