{
  "_format": "hh-sol-artifact-1",
  "contractName": "Betting",
  "sourceName": "contracts/Betting.sol",
  "abi": [
    {
      "anonymous": false,
      "inputs": [
        {
          "indexed": true,
          "internalType": "address",
          "name": "previousOwner",
          "type": "address"
        },
        {
          "indexed": true,
          "internalType": "address",
          "name": "newOwner",
          "type": "address"
        }
      ],
      "name": "OwnershipTransferred",
      "type": "event"
    },
    {
      "anonymous": false,
      "inputs": [
        {
          "indexed": true,
          "internalType": "string",
          "name": "name",
          "type": "string"
        }
      ],
      "name": "RappersEvent",
      "type": "event"
    },
    {
      "anonymous": false,
      "inputs": [
        {
          "indexed": true,
          "internalType": "address",
          "name": "bettor",
          "type": "address"
        },
        {
          "indexed": false,
          "internalType": "uint256",
          "name": "amount",
          "type": "uint256"
        }
      ],
      "name": "bettorsEvent",
      "type": "event"
    },
    {
      "inputs": [
        {
          "internalType": "uint256",
          "name": "_rapperIndex",
          "type": "uint256"
        },
        {
          "internalType": "uint256",
          "name": "amount",
          "type": "uint256"
        }
      ],
      "name": "betOnRapper",
      "outputs": [],
      "stateMutability": "nonpayable",
      "type": "function"
    },
    {
      "inputs": [
        {
          "internalType": "uint256",
          "name": "",
          "type": "uint256"
        }
      ],
      "name": "bettorsArray",
      "outputs": [
        {
          "internalType": "address",
          "name": "bettor",
          "type": "address"
        },
        {
          "internalType": "uint256",
          "name": "amountBet",
          "type": "uint256"
        }
      ],
      "stateMutability": "view",
      "type": "function"
    },
    {
      "inputs": [
        {
          "internalType": "address",
          "name": "",
          "type": "address"
        }
      ],
      "name": "mapBettors",
      "outputs": [
        {
          "internalType": "address",
          "name": "bettor",
          "type": "address"
        },
        {
          "internalType": "uint256",
          "name": "amountBet",
          "type": "uint256"
        }
      ],
      "stateMutability": "view",
      "type": "function"
    },
    {
      "inputs": [
        {
          "internalType": "address",
          "name": "",
          "type": "address"
        }
      ],
      "name": "numBetsAddress",
      "outputs": [
        {
          "internalType": "uint256",
          "name": "",
          "type": "uint256"
        }
      ],
      "stateMutability": "view",
      "type": "function"
    },
    {
      "inputs": [],
      "name": "owner",
      "outputs": [
        {
          "internalType": "address",
          "name": "",
          "type": "address"
        }
      ],
      "stateMutability": "view",
      "type": "function"
    },
    {
      "inputs": [
        {
          "internalType": "uint256",
          "name": "_rapperIndex",
          "type": "uint256"
        }
      ],
      "name": "rapperWinFundDistribution",
      "outputs": [],
      "stateMutability": "nonpayable",
      "type": "function"
    },
    {
      "inputs": [
        {
          "internalType": "uint256",
          "name": "",
          "type": "uint256"
        }
      ],
      "name": "rappersArray",
      "outputs": [
        {
          "internalType": "string",
          "name": "name",
          "type": "string"
        },
        {
          "internalType": "uint256",
          "name": "amountBetOn",
          "type": "uint256"
        }
      ],
      "stateMutability": "view",
      "type": "function"
    },
    {
      "inputs": [],
      "name": "renounceOwnership",
      "outputs": [],
      "stateMutability": "nonpayable",
      "type": "function"
    },
    {
      "inputs": [
        {
          "internalType": "string",
          "name": "_name",
          "type": "string"
        }
      ],
      "name": "setRapper",
      "outputs": [],
      "stateMutability": "nonpayable",
      "type": "function"
    },
    {
      "inputs": [
        {
          "internalType": "address",
          "name": "newOwner",
          "type": "address"
        }
      ],
      "name": "transferOwnership",
      "outputs": [],
      "stateMutability": "nonpayable",
      "type": "function"
    }
  ],
  "bytecode": "0x608060405273779877a7b0d9e8603169ddbd7836e478b4624789600460006101000a81548173ffffffffffffffffffffffffffffffffffffffff021916908373ffffffffffffffffffffffffffffffffffffffff160217905550600460009054906101000a900473ffffffffffffffffffffffffffffffffffffffff16600560006101000a81548173ffffffffffffffffffffffffffffffffffffffff021916908373ffffffffffffffffffffffffffffffffffffffff1602179055503480156100c857600080fd5b506100e56100da6100ea60201b60201c565b6100f260201b60201c565b6101b6565b600033905090565b60008060009054906101000a900473ffffffffffffffffffffffffffffffffffffffff169050816000806101000a81548173ffffffffffffffffffffffffffffffffffffffff021916908373ffffffffffffffffffffffffffffffffffffffff1602179055508173ffffffffffffffffffffffffffffffffffffffff168173ffffffffffffffffffffffffffffffffffffffff167f8be0079c531659141344cd1fd0a4f28419497f9722a3daafe3b4186f6b6457e060405160405180910390a35050565b611a78806101c56000396000f3fe608060405234801561001057600080fd5b506004361061009e5760003560e01c80636c882e90116100665780636c882e901461016d578063715018a61461019e5780638da5cb5b146101a85780639ea10695146101c6578063f2fde38b146101e25761009e565b80631495ff46146100a357806315458d0f146100d45780632d223533146100f057806335d0dcaa1461010c57806350de367a1461013d575b600080fd5b6100bd60048036038101906100b89190610fb6565b6101fe565b6040516100cb929190611082565b60405180910390f35b6100ee60048036038101906100e99190610fb6565b6102ba565b005b61010a600480360381019061010591906110b2565b61077f565b005b61012660048036038101906101219190610fb6565b610b35565b604051610134929190611133565b60405180910390f35b61015760048036038101906101529190611188565b610b89565b60405161016491906111b5565b60405180910390f35b61018760048036038101906101829190611188565b610ba1565b604051610195929190611133565b60405180910390f35b6101a6610be5565b005b6101b0610bf9565b6040516101bd91906111d0565b60405180910390f35b6101e060048036038101906101db9190611320565b610c22565b005b6101fc60048036038101906101f79190611188565b610cf8565b005b6006818154811061020e57600080fd5b906000526020600020906003020160009150905080600001805461023190611398565b80601f016020809104026020016040519081016040528092919081815260200182805461025d90611398565b80156102aa5780601f1061027f576101008083540402835291602001916102aa565b820191906000526020600020905b81548152906001019060200180831161028d57829003601f168201915b5050505050908060010154905082565b6102c2610d7b565b60008060008060008086036104f45760005b600687815481106102e8576102e76113c9565b5b9060005260206000209060030201600201805490508110156104f25760068781548110610318576103176113c9565b5b9060005260206000209060030201600201818154811061033b5761033a6113c9565b5b9060005260206000200160009054906101000a900473ffffffffffffffffffffffffffffffffffffffff169450600360008673ffffffffffffffffffffffffffffffffffffffff1673ffffffffffffffffffffffffffffffffffffffff168152602001908152602001600020600101549350600687815481106103c1576103c06113c9565b5b906000526020600020906003020160010154925060066001815481106103ea576103e96113c9565b5b906000526020600020906003020160010154915061271083612710846104109190611427565b61041a9190611498565b61271061042791906114c9565b856104329190611427565b61043c9190611498565b9550600560009054906101000a900473ffffffffffffffffffffffffffffffffffffffff1673ffffffffffffffffffffffffffffffffffffffff1663a9059cbb86886040518363ffffffff1660e01b815260040161049b929190611133565b6020604051808303816000875af11580156104ba573d6000803e3d6000fd5b505050506040513d601f19601f820116820180604052508101906104de9190611535565b5080806104ea90611562565b9150506102d4565b505b6001860361071f5760005b60068781548110610513576105126113c9565b5b90600052602060002090600302016002018054905081101561071d5760068781548110610543576105426113c9565b5b90600052602060002090600302016002018181548110610566576105656113c9565b5b9060005260206000200160009054906101000a900473ffffffffffffffffffffffffffffffffffffffff169450600360008673ffffffffffffffffffffffffffffffffffffffff1673ffffffffffffffffffffffffffffffffffffffff168152602001908152602001600020600101549350600687815481106105ec576105eb6113c9565b5b90600052602060002090600302016001015492506006600081548110610615576106146113c9565b5b9060005260206000209060030201600101549150612710836127108461063b9190611427565b6106459190611498565b61271061065291906114c9565b8561065d9190611427565b6106679190611498565b9550600560009054906101000a900473ffffffffffffffffffffffffffffffffffffffff1673ffffffffffffffffffffffffffffffffffffffff1663a9059cbb86886040518363ffffffff1660e01b81526004016106c6929190611133565b6020604051808303816000875af11580156106e5573d6000803e3d6000fd5b505050506040513d601f19601f820116820180604052508101906107099190611535565b50808061071590611562565b9150506104ff565b505b60006006600081548110610736576107356113c9565b5b90600052602060002090600302016001018190555060006006600181548110610762576107616113c9565b5b906000526020600020906003020160010181905550505050505050565b600081116107c2576040517f08c379a00000000000000000000000000000000000000000000000000000000081526004016107b99061161c565b60405180910390fd5b600560009054906101000a900473ffffffffffffffffffffffffffffffffffffffff1673ffffffffffffffffffffffffffffffffffffffff166323b872dd3330846040518463ffffffff1660e01b81526004016108219392919061163c565b6020604051808303816000875af1158015610840573d6000803e3d6000fd5b505050506040513d601f19601f820116820180604052508101906108649190611535565b50600160405180604001604052803373ffffffffffffffffffffffffffffffffffffffff16815260200183815250908060018154018082558091505060019003906000526020600020906002020160009091909190915060008201518160000160006101000a81548173ffffffffffffffffffffffffffffffffffffffff021916908373ffffffffffffffffffffffffffffffffffffffff16021790555060208201518160010155505060405180604001604052803373ffffffffffffffffffffffffffffffffffffffff16815260200182815250600360003373ffffffffffffffffffffffffffffffffffffffff1673ffffffffffffffffffffffffffffffffffffffff16815260200190815260200160002060008201518160000160006101000a81548173ffffffffffffffffffffffffffffffffffffffff021916908373ffffffffffffffffffffffffffffffffffffffff1602179055506020820151816001015590505080600683815481106109e1576109e06113c9565b5b90600052602060002090600302016001016000828254610a0191906114c9565b9250508190555060068281548110610a1c57610a1b6113c9565b5b9060005260206000209060030201600201339080600181540180825580915050600190039060005260206000200160009091909190916101000a81548173ffffffffffffffffffffffffffffffffffffffff021916908373ffffffffffffffffffffffffffffffffffffffff160217905550600260003373ffffffffffffffffffffffffffffffffffffffff1673ffffffffffffffffffffffffffffffffffffffff1681526020019081526020016000206000815480929190610ade90611562565b91905055503373ffffffffffffffffffffffffffffffffffffffff167fecb0fa08a16bfafb618b8798a4d6e5e93b47a6b05a30c9f773d622ecfa8a9a9582604051610b2991906111b5565b60405180910390a25050565b60018181548110610b4557600080fd5b90600052602060002090600202016000915090508060000160009054906101000a900473ffffffffffffffffffffffffffffffffffffffff16908060010154905082565b60026020528060005260406000206000915090505481565b60036020528060005260406000206000915090508060000160009054906101000a900473ffffffffffffffffffffffffffffffffffffffff16908060010154905082565b610bed610d7b565b610bf76000610df9565b565b60008060009054906101000a900473ffffffffffffffffffffffffffffffffffffffff16905090565b610c2a610d7b565b606060066040518060600160405280848152602001600081526020018381525090806001815401808255809150506001900390600052602060002090600302016000909190919091506000820151816000019081610c88919061181f565b50602082015181600101556040820151816002019080519060200190610caf929190610ec5565b50505081604051610cc0919061192d565b60405180910390207f33c774e20dfec13e77de443608a0e8d5b07854518340206a8cd90c064cffdaf060405160405180910390a25050565b610d00610d7b565b600073ffffffffffffffffffffffffffffffffffffffff168173ffffffffffffffffffffffffffffffffffffffff1603610d6f576040517f08c379a0000000000000000000000000000000000000000000000000000000008152600401610d66906119b6565b60405180910390fd5b610d7881610df9565b50565b610d83610ebd565b73ffffffffffffffffffffffffffffffffffffffff16610da1610bf9565b73ffffffffffffffffffffffffffffffffffffffff1614610df7576040517f08c379a0000000000000000000000000000000000000000000000000000000008152600401610dee90611a22565b60405180910390fd5b565b60008060009054906101000a900473ffffffffffffffffffffffffffffffffffffffff169050816000806101000a81548173ffffffffffffffffffffffffffffffffffffffff021916908373ffffffffffffffffffffffffffffffffffffffff1602179055508173ffffffffffffffffffffffffffffffffffffffff168173ffffffffffffffffffffffffffffffffffffffff167f8be0079c531659141344cd1fd0a4f28419497f9722a3daafe3b4186f6b6457e060405160405180910390a35050565b600033905090565b828054828255906000526020600020908101928215610f3e579160200282015b82811115610f3d5782518260006101000a81548173ffffffffffffffffffffffffffffffffffffffff021916908373ffffffffffffffffffffffffffffffffffffffff16021790555091602001919060010190610ee5565b5b509050610f4b9190610f4f565b5090565b5b80821115610f68576000816000905550600101610f50565b5090565b6000604051905090565b600080fd5b600080fd5b6000819050919050565b610f9381610f80565b8114610f9e57600080fd5b50565b600081359050610fb081610f8a565b92915050565b600060208284031215610fcc57610fcb610f76565b5b6000610fda84828501610fa1565b91505092915050565b600081519050919050565b600082825260208201905092915050565b60005b8381101561101d578082015181840152602081019050611002565b60008484015250505050565b6000601f19601f8301169050919050565b600061104582610fe3565b61104f8185610fee565b935061105f818560208601610fff565b61106881611029565b840191505092915050565b61107c81610f80565b82525050565b6000604082019050818103600083015261109c818561103a565b90506110ab6020830184611073565b9392505050565b600080604083850312156110c9576110c8610f76565b5b60006110d785828601610fa1565b92505060206110e885828601610fa1565b9150509250929050565b600073ffffffffffffffffffffffffffffffffffffffff82169050919050565b600061111d826110f2565b9050919050565b61112d81611112565b82525050565b60006040820190506111486000830185611124565b6111556020830184611073565b9392505050565b61116581611112565b811461117057600080fd5b50565b6000813590506111828161115c565b92915050565b60006020828403121561119e5761119d610f76565b5b60006111ac84828501611173565b91505092915050565b60006020820190506111ca6000830184611073565b92915050565b60006020820190506111e56000830184611124565b92915050565b600080fd5b600080fd5b7f4e487b7100000000000000000000000000000000000000000000000000000000600052604160045260246000fd5b61122d82611029565b810181811067ffffffffffffffff8211171561124c5761124b6111f5565b5b80604052505050565b600061125f610f6c565b905061126b8282611224565b919050565b600067ffffffffffffffff82111561128b5761128a6111f5565b5b61129482611029565b9050602081019050919050565b82818337600083830152505050565b60006112c36112be84611270565b611255565b9050828152602081018484840111156112df576112de6111f0565b5b6112ea8482856112a1565b509392505050565b600082601f830112611307576113066111eb565b5b81356113178482602086016112b0565b91505092915050565b60006020828403121561133657611335610f76565b5b600082013567ffffffffffffffff81111561135457611353610f7b565b5b611360848285016112f2565b91505092915050565b7f4e487b7100000000000000000000000000000000000000000000000000000000600052602260045260246000fd5b600060028204905060018216806113b057607f821691505b6020821081036113c3576113c2611369565b5b50919050565b7f4e487b7100000000000000000000000000000000000000000000000000000000600052603260045260246000fd5b7f4e487b7100000000000000000000000000000000000000000000000000000000600052601160045260246000fd5b600061143282610f80565b915061143d83610f80565b925082820261144b81610f80565b91508282048414831517611462576114616113f8565b5b5092915050565b7f4e487b7100000000000000000000000000000000000000000000000000000000600052601260045260246000fd5b60006114a382610f80565b91506114ae83610f80565b9250826114be576114bd611469565b5b828204905092915050565b60006114d482610f80565b91506114df83610f80565b92508282019050808211156114f7576114f66113f8565b5b92915050565b60008115159050919050565b611512816114fd565b811461151d57600080fd5b50565b60008151905061152f81611509565b92915050565b60006020828403121561154b5761154a610f76565b5b600061155984828501611520565b91505092915050565b600061156d82610f80565b91507fffffffffffffffffffffffffffffffffffffffffffffffffffffffffffffffff820361159f5761159e6113f8565b5b600182019050919050565b7f796f75206d75737420626574207769746820736f6d65206c696e6b20746f6b6560008201527f6e00000000000000000000000000000000000000000000000000000000000000602082015250565b6000611606602183610fee565b9150611611826115aa565b604082019050919050565b60006020820190508181036000830152611635816115f9565b9050919050565b60006060820190506116516000830186611124565b61165e6020830185611124565b61166b6040830184611073565b949350505050565b60008190508160005260206000209050919050565b60006020601f8301049050919050565b600082821b905092915050565b6000600883026116d57fffffffffffffffffffffffffffffffffffffffffffffffffffffffffffffffff82611698565b6116df8683611698565b95508019841693508086168417925050509392505050565b6000819050919050565b600061171c61171761171284610f80565b6116f7565b610f80565b9050919050565b6000819050919050565b61173683611701565b61174a61174282611723565b8484546116a5565b825550505050565b600090565b61175f611752565b61176a81848461172d565b505050565b5b8181101561178e57611783600082611757565b600181019050611770565b5050565b601f8211156117d3576117a481611673565b6117ad84611688565b810160208510156117bc578190505b6117d06117c885611688565b83018261176f565b50505b505050565b600082821c905092915050565b60006117f6600019846008026117d8565b1980831691505092915050565b600061180f83836117e5565b9150826002028217905092915050565b61182882610fe3565b67ffffffffffffffff811115611841576118406111f5565b5b61184b8254611398565b611856828285611792565b600060209050601f8311600181146118895760008415611877578287015190505b6118818582611803565b8655506118e9565b601f19841661189786611673565b60005b828110156118bf5784890151825560018201915060208501945060208101905061189a565b868310156118dc57848901516118d8601f8916826117e5565b8355505b6001600288020188555050505b505050505050565b600081905092915050565b600061190782610fe3565b61191181856118f1565b9350611921818560208601610fff565b80840191505092915050565b600061193982846118fc565b915081905092915050565b7f4f776e61626c653a206e6577206f776e657220697320746865207a65726f206160008201527f6464726573730000000000000000000000000000000000000000000000000000602082015250565b60006119a0602683610fee565b91506119ab82611944565b604082019050919050565b600060208201905081810360008301526119cf81611993565b9050919050565b7f4f776e61626c653a2063616c6c6572206973206e6f7420746865206f776e6572600082015250565b6000611a0c602083610fee565b9150611a17826119d6565b602082019050919050565b60006020820190508181036000830152611a3b816119ff565b905091905056fea2646970667358221220742972ff26f4c642b5392eab19e3dd08fb26104d83fc6734d50d41b46da5b44064736f6c63430008120033",
  "linkReferences": {},
  "deployedLinkReferences": {}
}